:020000040000FA
:100000000C9461000C9473000C9473000C947300B6
:100010000C9473000C9473000C9473000C94730094
:100020000C9473000C9473000C9473000C94730084
:100030000C9473000C9473000C9473000C94730074
:100040000C94C3000C9473000C9473000C94730014
:100050000C9473000C9473000C9473000C94730054
:100060000C9473000C94730000000000240027001F
:100070002A000000000023002600290000000000E4
:10008000250028002B0004040404040404040202D4
:100090000202020203030303030301020408102007
:1000A0004080010204081020010204081020000012
:1000B0000008000201000003040700000000000027
:1000C000000011241FBECFEFD8E0DEBFCDBF21E07E
:1000D000A0E0B1E001C01D92AF30B207E1F70E948D
:1000E0000D010C9428020C940000833081F028F458
:1000F000813099F08230A9F008958730A9F08830D6
:10010000C9F08430B1F4809180008F7D03C080916C
:1001100080008F7780938000089584B58F7784BDA9
:10012000089584B58F7DFBCF8091B0008F77809349
:10013000B00008958091B0008F7DF9CF3FB7F8945B
:1001400080910B0190910C01A0910D01B0910E01D5
:1001500026B5A89B05C02F3F19F00196A11DB11D22
:100160003FBFBA2FA92F982F8827BC01CD01620F5E
:10017000711D811D911D42E0660F771F881F991F19
:100180004A95D1F708951F920F920FB60F9211243E
:100190002F933F938F939F93AF93BF9380910701CA
:1001A00090910801A0910901B0910A0130910601D6
:1001B00023E0230F2D3758F50196A11DB11D209383
:1001C00006018093070190930801A0930901B09361
:1001D0000A0180910B0190910C01A0910D01B09149
:1001E0000E010196A11DB11D80930B0190930C018E
:1001F000A0930D01B0930E01BF91AF919F918F918C
:100200003F912F910F900FBE0F901F90189526E8E9
:10021000230F0296A11DB11DD2CF789484B58260C0
:1002200084BD84B5816084BD85B5826085BD85B59A
:10023000816085BD80916E00816080936E00109218
:100240008100809181008260809381008091810093
:100250008160809381008091800081608093800024
:100260008091B10084608093B1008091B000816082
:100270008093B00080917A00846080937A008091AE
:100280007A00826080937A0080917A008160809306
:100290007A0080917A00806880937A001092C10081
:1002A000C7EAD0E0FE01249103E910E0F80184914F
:1002B000882399F090E0880F991FFC01E859FF4FBF
:1002C000A591B491FC01E458FF4F859194918FB7AB
:1002D000F8949C91292B2C938FBF56EA252E50E041
:1002E000352EF101249162E9862E60E0962EF4010C
:1002F00084918823C9F090E0880F991FFC01E85988
:10030000FF4FA591B491FC01E458FF4F45915491E2
:100310003FB7F8949C91822F809598239C93FA0183
:100320009081892380833FBF30E0A32E30E0B32E3D
:10033000EAEBF0E08491F101F490F401E490EE2016
:1003400009F481C081110E947500EE2DF0E0EE0FDE
:10035000FF1FEE58FF4FA591B4918C91F82231E028
:1003600020E009F430E0832F922F909305018093D1
:10037000040120910201309103012817390709F483
:1003800053C0019709F050C0E0900001F0900101C6
:1003900081E090E0E114F10411F090E080E09093AE
:1003A000010180930001EBEBF0E08491FE01D49019
:1003B000F801C490CC20A1F081110E947500EC2DB1
:1003C000F0E0EE0FFF1FE458FF4FA591B4918FB7F7
:1003D000F8949C91EF28D1F1D094D922DC928FBF70
:1003E0000E949E002B013C0182E3C82ED12CE12CFF
:1003F000F12C0E949E006419750986099709683ED0
:10040000734081059105A8F3F1E0CF1AD108E10806
:10041000F10828EE420E23E0521E611C711CC1142B
:10042000D104E104F10429F78091040190910501C0
:100430009093030180930201A114B10409F478CFD1
:100440000E94000075CF90E080E08FCFD92AC6CF00
:04045000F894FFCF4E
:107E0000112484B714BE81FFF0D085E080938100F7
:107E100082E08093C00088E18093C10086E0809377
:107E2000C20080E18093C4008EE0C9D0259A86E02C
:107E300020E33CEF91E0309385002093840096BBD3
:107E4000B09BFECF1D9AA8958150A9F7CC24DD24C4
:107E500088248394B5E0AB2EA1E19A2EF3E0BF2EE7
:107E6000A2D0813461F49FD0082FAFD0023811F036
:107E7000013811F484E001C083E08DD089C08234E0
:107E800011F484E103C0853419F485E0A6D080C0E4
:107E9000853579F488D0E82EFF2485D0082F10E0AE
:107EA000102F00270E291F29000F111F8ED06801E7
:107EB0006FC0863521F484E090D080E0DECF843638
:107EC00009F040C070D06FD0082F6DD080E0C81688
:107ED00080E7D80618F4F601B7BEE895C0E0D1E017
:107EE00062D089930C17E1F7F0E0CF16F0E7DF06D8
:107EF00018F0F601B7BEE89568D007B600FCFDCFD4
:107F0000A601A0E0B1E02C9130E011968C91119780
:107F100090E0982F8827822B932B1296FA010C0160
:107F200087BEE89511244E5F5F4FF1E0A038BF0790
:107F300051F7F601A7BEE89507B600FCFDCF97BE46
:107F4000E89526C08437B1F42ED02DD0F82E2BD052
:107F50003CD0F601EF2C8F010F5F1F4F84911BD097
:107F6000EA94F801C1F70894C11CD11CFA94CF0C13
:107F7000D11C0EC0853739F428D08EE10CD085E9AC
:107F80000AD08FE07ACF813511F488E018D01DD067
:107F900080E101D065CF982F8091C00085FFFCCF94
:107FA0009093C60008958091C00087FFFCCF809118
:107FB000C00084FD01C0A8958091C6000895E0E648
:107FC000F0E098E1908380830895EDDF803219F02E
:107FD00088E0F5DFFFCF84E1DECF1F93182FE3DFCA
:107FE0001150E9F7F2DF1F91089580E0E8DFEE27F6
:047FF000FF270994CA
:027FFE00040479
:00000001FF
