:100000000C945D000C9485000C9485000C94850084
:100010000C9485000C9485000C9485000C9485004C
:100020000C9485000C9485000C9485000C9485003C
:100030000C9485000C9485000C9485000C9485002C
:100040000C946E020C9485000C94DE020C94B802A1
:100050000C9485000C9485000C9485000C9485000C
:100060000C9485000C94850000000008000201003B
:100070000003040700000000000000000000000072
:10008000250028002B0000000000240027002A0083
:10009000040404040404040402020202020203032E
:1000A0000303030301020408102040800102040836
:1000B00010200102040810205A0411241FBECFEFA3
:1000C000D8E0DEBFCDBF11E0A0E0B1E0E2E6F9E0AC
:1000D00002C005900D92AE32B107D9F721E0AEE231
:1000E000B1E001C01D92A43DB207E1F710E0CDE5FB
:1000F000D0E004C02197FE010E94A904CC35D107AD
:10010000C9F70E9410030C94AF040C940000EDEAB0
:10011000F0E02491E9E9F0E08491882399F090E0FF
:10012000880F991FFC01EA57FF4FA591B491FC017C
:10013000E458FF4F859194918FB7F894EC91E22B9E
:10014000EC938FBF0895E1E7F0E02491EDEAF0E051
:100150009491E9E9F0E0E491EE23C9F0222339F02B
:10016000233001F1A8F4213019F1223029F1F0E017
:10017000EE0FFF1FE458FF4FA591B4912FB7F894ED
:10018000EC91811126C090959E239C932FBF0895DA
:100190002730A9F02830C9F0243049F72091800099
:1001A0002F7D03C0209180002F7720938000DFCF28
:1001B00024B52F7724BDDBCF24B52F7DFBCF209135
:1001C000B0002F772093B000D2CF2091B0002F7DC8
:1001D000F9CF9E2BDACF3FB7F894809133019091FD
:1001E0003401A0913501B091360126B5A89B05C018
:1001F0002F3F19F00196A11DB11D3FBFBA2FA92FA6
:10020000982F8827BC01CD01620F711D811D911DA2
:1002100042E0660F771F881F991F4A95D1F708950E
:10022000AF92BF92CF92DF92EF92FF920F931F9304
:10023000CF93DF936C017B018B01040F151FEB0142
:100240005E01AE18BF08C017D10759F06991D601F9
:10025000ED91FC910190F081E02DC6010995892B6B
:1002600079F7C501DF91CF911F910F91FF90EF902A
:10027000DF90CF90BF90AF900895FC01538D448DD7
:10028000252F30E0842F90E0821B930B541710F041
:10029000CF96089501970895FC01918D828D98174E
:1002A00061F0A28DAE0FBF2FB11D5D968C91928D26
:1002B0009F5F9F73928F90E008958FEF9FEF089557
:1002C000FC01918D828D981731F0828DE80FF11D20
:1002D000858D90E008958FEF9FEF0895FC01918D3B
:1002E000228D892F90E0805C9F4F821B91098F7334
:1002F0009927089587E391E00E946E0121E0892B00
:1003000009F420E0822F089580E090E0892B29F005
:100310000E947A0181110C9400000895FC01A48DC3
:10032000A80FB92FB11DA35ABF4F2C91848D90E017
:1003300001968F739927848FA689B7892C93A089FA
:10034000B1898C91837080648C93938D848D981384
:1003500006C00288F389E02D80818F7D8083089517
:10036000EF92FF920F931F93CF93DF93EC0181E005
:10037000888F9B8D8C8D98131AC0E889F9898081AC
:1003800085FF15C09FB7F894EE89FF896083E889DF
:10039000F98980818370806480839FBF81E090E0D1
:1003A000DF91CF911F910F91FF90EF900895F62E5E
:1003B0000B8D10E00F5F1F4F0F731127E02E8C8DF8
:1003C0008E110CC00FB607FCFACFE889F98980813D
:1003D00085FFF5CFCE010E948E01F1CFEB8DEC0FA2
:1003E000FD2FF11DE35AFF4FF0829FB7F8940B8F5A
:1003F000EA89FB8980818062CFCFCF93DF93EC01C4
:10040000888D8823B9F0AA89BB89E889F9898C91FC
:1004100085FD03C0808186FD0DC00FB607FCF7CFB8
:100420008C9185FFF2CF808185FFEDCFCE010E94B8
:100430008E01E9CFDF91CF910895FC01019000205A
:10044000E9F73197AF01481B590BBC0187E391E0F5
:100450000C9410018F929F92AF92BF920F931F93B3
:10046000CF93DF93CDB7DEB7A1970FB6F894DEBF79
:100470000FBECDBF19A2423008F44AE08E010F5DD5
:100480001F4F842E912CB12CA12CA50194010E9408
:100490008704E62FB901CA01EA30F4F4E05DD8011F
:1004A000EE938D01232B242B252B79F790E080E010
:1004B000109719F0CD010E941D02A1960FB6F89475
:1004C000DEBF0FBECDBFDF91CF911F910F91BF90C7
:1004D000AF909F908F900895E95CE1CF1F920F92AB
:1004E0000FB60F9211242F933F938F939F93AF9347
:1004F000BF9380912F0190913001A0913101B09173
:10050000320130912E0123E0230F2D3758F501964B
:10051000A11DB11D20932E0180932F0190933001D6
:10052000A0933101B0933201809133019091340155
:10053000A0913501B09136010196A11DB11D8093A6
:10054000330190933401A0933501B0933601BF91EC
:10055000AF919F918F913F912F910F900FBE0F9070
:100560001F90189526E8230F0296A11DB11DD2CF2A
:100570001F920F920FB60F9211242F933F934F9318
:100580005F936F937F938F939F93AF93BF93EF93FB
:10059000FF9387E391E00E948E01FF91EF91BF915D
:1005A000AF919F918F917F916F915F914F913F910B
:1005B0002F910F900FBE0F901F9018951F920F92C2
:1005C0000FB60F9211242F938F939F93EF93FF9366
:1005D000E0914701F09148018081E0914D01F09157
:1005E0004E0182FD1BC09081809150018F5F8F73FF
:1005F00020915101821741F0E0915001F0E0E95C57
:10060000FE4F958F80935001FF91EF919F918F91B5
:100610002F910F900FBE0F901F9018958081F4CFEF
:10062000789484B5826084BD84B5816084BD85B5CD
:10063000826085BD85B5816085BD80916E008160D9
:1006400080936E001092810080918100826080937F
:100650008100809181008160809381008091800081
:100660008160809380008091B10084608093B100AC
:100670008091B00081608093B00080917A008460A6
:1006800080937A0080917A00826080937A008091D2
:100690007A00816080937A0080917A0080688093EC
:1006A0007A001092C100E0914701F091480182E088
:1006B0008083E0914301F09144011082E091450173
:1006C000F09146018FEC808310924F01E0914B0135
:1006D000F0914C0186E08083E0914901F0914A015C
:1006E000808180618083E0914901F0914A0180819D
:1006F00088608083E0914901F0914A01808180689F
:100700008083E0914901F0914A0180818F7D80834F
:100710000E94870020E4322E31E7E32E30E0F32EF2
:1007200000E010E030927C0080917A008064809339
:100730007A0080917A0086FDFCCFC0917800D0913C
:10074000790082E191E00E941D024E010D2E000C05
:10075000AA08BB084AE0C501B401B7FE0DC06DE2AE
:1007600087E391E00E94B00166277727CB016819E3
:1007700079098A099B094AE00E942A0283E291E0F2
:100780000E941D02D7FD2396D595C795D595C7958F
:1007900086E291E00E941D026C2F70E090E080E004
:1007A0004AE00E942A0283E291E00E941D026E014B
:1007B000DD240E948700C114D104A1F580E00E94CD
:1007C000A3000E94EB002B013C0188EE882E83E001
:1007D000982EA12CB12C0E94EB0064197509860992
:1007E0009709683E734081059105A8F321E0821ABC
:1007F0009108A108B10888EE480E83E0581E611CDC
:10080000711C81149104A104B10429F7011511058B
:1008100009F488CF0E947A01882309F483CF0E94CB
:10082000000080CF2FEFC216D10411F481E0C7CFB2
:10083000F7018491833021F148F48130B9F082309E
:10084000D1F0F0E8CF16D1048CF7B8CF873011F192
:10085000883041F18430A9F78091800080628093D4
:100860008000D0928B00C0928A00ABCF84B58068A4
:1008700084BDC7BDA6CF84B5806284BDC8BDA1CFED
:1008800080918000806880938000D0928900C0921F
:10089000880097CF8091B00080688093B000C093AB
:1008A000B3008FCF8091B00080628093B000C0937E
:1008B000B40087CFE7E3F1E01382128288EE93E081
:1008C000A0E0B0E084839583A683B78384E091E0C1
:1008D0009183808385EC90E09587848784EC90E019
:1008E0009787868780EC90E0918B808B81EC90E0FD
:1008F000938B828B82EC90E0958B848B86EC90E0DE
:10090000978B868B118E128E138E148E0895A1E212
:100910001A2EAA1BBB1BFD010DC0AA1FBB1FEE1F79
:10092000FF1FA217B307E407F50720F0A21BB30BC4
:10093000E40BF50B661F771F881F991F1A9469F740
:1009400060957095809590959B01AC01BD01CF019C
:100950000895EE0FFF1F0590F491E02D0994F8948F
:02096000FFCFC7
:1009620000000000B00110013D01FD016E014C01CB
:100972006001506F74656E74696F6D657465722085
:0E0982003A20000D0A0044454C203A200000A7
:00000001FF
