:020000040000FA
:100000000C9462000C948A000C948A000C948A0070
:100010000C948A000C948A000C948A000C948A0038
:100020000C948A000C948A000C948A000C948A0028
:100030000C948A000C948A000C948A000C948A0018
:100040000C9460020C948A000C94D0020C94AA02C6
:100050000C948A000C948A000C948A000C948A00F8
:100060000C948A000C948A000000000023002600F3
:10007000290000000008000201000003040700003E
:1000800000000000000000000000250028002B00F8
:1000900000000000240027002A00040404040404D3
:1000A0000404020202020202030303030303010227
:1000B00004081020408001020408102001020408F6
:1000C0001020870411241FBECFEFD8E0DEBFCDBFC4
:1000D00011E0A0E0B1E0ECEBF9E002C005900D9278
:1000E000A833B107D9F721E0A8E3B1E001C01D9220
:1000F000A23EB207E1F710E0C2E6D0E004C02197CB
:10010000FE010E94D604C136D107C9F70E9402033E
:100110000C94DC040C94000090E0FC01E255FF4FCD
:10012000249186569F4FFC018491882399F090E09A
:10013000880F991FFC01E057FF4FA591B491FC0176
:10014000EA57FF4F859194918FB7F894EC91E22B89
:10015000EC938FBF0895833081F028F4813099F0BB
:100160008230A9F008958730A9F08830C9F0843032
:10017000B1F4809180008F7D03C0809180008F77E3
:1001800080938000089584B58F7784BD089584B5E9
:100190008F7DFBCF8091B0008F778093B000089562
:1001A0008091B0008F7DF9CF1F93CF93DF93282FDD
:1001B00030E0F901EE58FF4F8491F901E255FF4F0D
:1001C000D491F901E656FF4FC491CC23A9F0162F24
:1001D00081110E94AB00EC2FF0E0EE0FFF1FEA57F9
:1001E000FF4FA591B4918FB7F894EC91111108C00D
:1001F000D095DE23DC938FBFDF91CF911F910895BF
:10020000DE2BF8CFAF92BF92CF92DF92EF92FF92A8
:100210000F931F93CF93DF936C017B018B01040F2E
:10022000151FEB015E01AE18BF08C017D10759F0CA
:100230006991D601ED91FC910190F081E02DC6010C
:100240000995892B79F7C501DF91CF911F910F9106
:10025000FF90EF90DF90CF90BF90AF900895FC019A
:10026000538D448D252F30E0842F90E0821B930B1B
:10027000541710F0CF96089501970895FC01918DC1
:10028000828D981761F0A28DAE0FBF2FB11D5D96C4
:100290008C91928D9F5F9F73928F90E008958FEF66
:1002A0009FEF0895FC01918D828D981731F0828D1A
:1002B000E80FF11D858D90E008958FEF9FEF089571
:1002C000FC01918D228D892F90E0805C9F4F821BD5
:1002D00091098F739927089585E491E00E94600148
:1002E00021E0892B09F420E0822F089580E090E03E
:1002F000892B29F00E946C0181110C940000089553
:10030000FC01A48DA80FB92FB11DA35ABF4F2C918A
:10031000848D90E001968F739927848FA689B78981
:100320002C93A089B1898C91837080648C93938D78
:10033000848D981306C00288F389E02D80818F7D1B
:1003400080830895EF92FF920F931F93CF93DF93D3
:10035000EC0181E0888F9B8D8C8D98131AC0E88901
:10036000F989808185FF15C09FB7F894EE89FF89D0
:100370006083E889F98980818370806480839FBF6E
:1003800081E090E0DF91CF911F910F91FF90EF906E
:100390000895F62E0B8D10E00F5F1F4F0F7311277E
:1003A000E02E8C8D8E110CC00FB607FCFACFE889B9
:1003B000F989808185FFF5CFCE010E948001F1CFC0
:1003C000EB8DEC0FFD2FF11DE35AFF4FF0829FB72D
:1003D000F8940B8FEA89FB8980818062CFCFCF931D
:1003E000DF93EC01888D8823B9F0AA89BB89E8895D
:1003F000F9898C9185FD03C0808186FD0DC00FB603
:1004000007FCF7CF8C9185FFF2CF808185FFEDCF80
:10041000CE010E948001E9CFDF91CF910895FC01C8
:1004200001900020E9F73197AF01481B590BBC013F
:1004300085E491E00C9402018F929F92AF92BF925B
:100440000F931F93CF93DF93CDB7DEB7A1970FB66E
:10045000F894DEBF0FBECDBF19A2423008F44AE0C7
:100460008E010F5D1F4F842E912CB12CA12CA50164
:1004700094010E94B404E62FB901CA01EA30F4F4F1
:10048000E05DD801EE938D01232B242B252B79F7EA
:1004900090E080E0109719F0CD010E940F02A19624
:1004A0000FB6F894DEBF0FBECDBFDF91CF911F9185
:1004B0000F91BF90AF909F908F900895E95CE1CF2E
:1004C0001F920F920FB60F9211242F933F938F9389
:1004D0009F93AF93BF938091410190914201A0916E
:1004E0004301B09144013091400123E0230F2D37A7
:1004F00058F50196A11DB11D209340018093410143
:1005000090934201A0934301B093440180913C0138
:1005100090913D01A0913E01B0913F010196A11D36
:10052000B11D80933C0190933D01A0933E01B09397
:100530003F01BF91AF919F918F913F912F910F906C
:100540000FBE0F901F90189526E8230F0296A11D4D
:10055000B11DD2CF1F920F920FB60F9211242F937D
:100560003F934F935F936F937F938F939F93AF933B
:10057000BF93EF93FF9385E491E00E948001FF9188
:10058000EF91BF91AF919F918F917F916F915F910B
:100590004F913F912F910F900FBE0F901F90189584
:1005A0001F920F920FB60F9211242F938F939F9348
:1005B000EF93FF93E0915501F09156018081E09116
:1005C0005B01F0915C0182FD1BC0908180915E0116
:1005D0008F5F8F7320915F01821741F0E0915E0180
:1005E000F0E0EB5BFE4F958F80935E01FF91EF9102
:1005F0009F918F912F910F900FBE0F901F90189584
:100600008081F4CF789484B5826084BD84B58160A4
:1006100084BD85B5826085BD85B5816085BD8091CD
:100620006E00816080936E00109281008091810045
:10063000826080938100809181008160809381003D
:10064000809180008160809380008091B1008460FF
:100650008093B1008091B00081608093B000809160
:100660007A00846080937A0080917A00826080931F
:100670007A0080917A00816080937A0080917A007C
:10068000806880937A001092C100E0915501F0914A
:10069000560182E08083E0915101F0915201108275
:1006A000E0915301F09154018FEC808310925D0131
:1006B000E0915901F0915A0186E08083E091570161
:1006C000F0915801808180618083E0915701F09121
:1006D0005801808188608083E0915701F091580132
:1006E000808180688083E0915701F091580180817A
:1006F0008F7D808389E00E948C008DE00E948C00B9
:1007000020E4222E3BE7432E30E0532E4FE7642EA9
:1007100040E0742E5BEBA52E50E0B52E67EA862EE6
:1007200060E0962EC0E0D0E020927C0080917A00BC
:10073000806480937A0080917A0086FDFCCFC0901F
:100740007800D09079008601D7FE02C00D5F1F4F60
:100750001595079515950795302E7801FF2489E0AA
:100760000E948C00E114F10409F089C060E089E086
:100770000E94D4002FB7F8948091410190914201DA
:10078000A0914301B09144012FBF40913801509195
:10079000390160913A0170913B018C019D01041B6C
:1007A000150B260B370BB901A801443F51406105D9
:1007B000710508F459C08093380190933901A093D2
:1007C0003A01B0933B01F3018491F5011491F401D6
:1007D000049170E060E0002399F081110E94AB0069
:1007E000E02FF0E0EE0FFF1FE859FF4FA591B49105
:1007F0008C91182391E080E009F490E0692F782F24
:10080000F1E06F278DE00E94D40082E191E00E9428
:100810000F020D2C000CEE08FF084AE0C701B601DC
:10082000F7FE0DC06DE285E491E00E94A20166270B
:100830007727CB016C197D098E099F094AE00E9438
:100840001C0288E291E00E940F028BE291E00E947C
:100850000F02632D70E090E080E04AE00E941C02ED
:1008600088E291E00E940F02209709F45DCF0E9478
:100870006C01882309F458CF0E94000055CF2FEF58
:10088000E216F10411F461E072CFF2018491833039
:1008900021F148F48130B9F08230D1F0F0E8EF1660
:1008A000F1048CF763CF873011F1883041F1843047
:1008B000A9F780918000806280938000F0928B0085
:1008C000E0928A0057CF84B5806884BD07BD52CFBF
:1008D00084B5806284BD08BD4DCF80918000806862
:1008E00080938000F0928900E092880043CF80914D
:1008F000B00080688093B0000093B3003BCF80913C
:10090000B00080628093B0000093B40033CFE5E480
:10091000F1E01382128288EE93E0A0E0B0E08483DD
:100920009583A683B78384E091E09183808385ECEF
:1009300090E09587848784EC90E09787868780ECA9
:1009400090E0918B808B81EC90E0938B828B82EC9A
:1009500090E0958B848B86EC90E0978B868B118E44
:10096000128E138E148E0895A1E21A2EAA1BBB1BA1
:10097000FD010DC0AA1FBB1FEE1FFF1FA217B3076B
:10098000E407F50720F0A21BB30BE40BF50B661F81
:10099000771F881F991F1A9469F760957095809545
:1009A00090959B01AC01BD01CF010895EE0FFF1F93
:1009B0000590F491E02D0994F894FFCF0000000019
:1009C000A20102012F01EF0160013E015201506FAF
:1009D00074656E74696F6D657465722076616C758F
:1009E000653A20000D0A0044454C2076616C75651F
:0409F0003A200000A9
:107E0000112484B714BE81FFF0D085E080938100F7
:107E100082E08093C00088E18093C10086E0809377
:107E2000C20080E18093C4008EE0C9D0259A86E02C
:107E300020E33CEF91E0309385002093840096BBD3
:107E4000B09BFECF1D9AA8958150A9F7CC24DD24C4
:107E500088248394B5E0AB2EA1E19A2EF3E0BF2EE7
:107E6000A2D0813461F49FD0082FAFD0023811F036
:107E7000013811F484E001C083E08DD089C08234E0
:107E800011F484E103C0853419F485E0A6D080C0E4
:107E9000853579F488D0E82EFF2485D0082F10E0AE
:107EA000102F00270E291F29000F111F8ED06801E7
:107EB0006FC0863521F484E090D080E0DECF843638
:107EC00009F040C070D06FD0082F6DD080E0C81688
:107ED00080E7D80618F4F601B7BEE895C0E0D1E017
:107EE00062D089930C17E1F7F0E0CF16F0E7DF06D8
:107EF00018F0F601B7BEE89568D007B600FCFDCFD4
:107F0000A601A0E0B1E02C9130E011968C91119780
:107F100090E0982F8827822B932B1296FA010C0160
:107F200087BEE89511244E5F5F4FF1E0A038BF0790
:107F300051F7F601A7BEE89507B600FCFDCF97BE46
:107F4000E89526C08437B1F42ED02DD0F82E2BD052
:107F50003CD0F601EF2C8F010F5F1F4F84911BD097
:107F6000EA94F801C1F70894C11CD11CFA94CF0C13
:107F7000D11C0EC0853739F428D08EE10CD085E9AC
:107F80000AD08FE07ACF813511F488E018D01DD067
:107F900080E101D065CF982F8091C00085FFFCCF94
:107FA0009093C60008958091C00087FFFCCF809118
:107FB000C00084FD01C0A8958091C6000895E0E648
:107FC000F0E098E1908380830895EDDF803219F02E
:107FD00088E0F5DFFFCF84E1DECF1F93182FE3DFCA
:107FE0001150E9F7F2DF1F91089580E0E8DFEE27F6
:047FF000FF270994CA
:027FFE00040479
:00000001FF
