:020000040000FA
:100000000C945C000C946E000C946E000C946E00CA
:100010000C946E000C946E000C946E000C946E00A8
:100020000C946E000C946E000C946E000C946E0098
:100030000C946E000C946E000C946E000C946E0088
:100040000C94E9000C946E000C946E000C946E00FD
:100050000C946E000C946E000C946E000C946E0068
:100060000C946E000C946E00000000002400270029
:100070002A0000000000250028002B0004040404CE
:100080000404040402020202020203030303030342
:10009000010204081020408001020408102001021F
:1000A00004081020000000080002010000030407FB
:1000B000000000000000000011241FBECFEFD8E0B8
:1000C000DEBFCDBF21E0A0E0B1E001C01D92A231B2
:1000D000B207E1F70E9433010C9402020C94000075
:1000E000EDEAF0E02491E9E9F0E09491E5E8F0E050
:1000F000E491EE23C9F0222339F0233001F1A8F472
:10010000213019F1223029F1F0E0EE0FFF1FEE58F7
:10011000FF4FA591B4912FB7F894EC91811126C0AF
:1001200090959E239C932FBF08952730A9F02830E7
:10013000C9F0243049F7209180002F7D03C0209121
:1001400080002F7720938000DFCF24B52F7724BD48
:10015000DBCF24B52F7DFBCF2091B0002F772093EC
:10016000B000D2CF2091B0002F7DF9CF9E2BDACFF7
:10017000CF93DF9390E0FC01E057FF4F2491845828
:100180009F4FFC0184918823D1F090E0880F991F44
:10019000FC01E859FF4FA591B491FC01EE58FF4FC7
:1001A000C591D49161110EC09FB7F8948C91E22F44
:1001B000E0958E238C932881E223E8839FBFDF9113
:1001C000CF9108958FB7F894EC91E22BEC938FBF09
:1001D000F6CF1F920F920FB60F9211242F933F93D9
:1001E0008F939F93AF93BF9380910E0190910F01D6
:1001F000A0911001B091110130910D0123E0230F66
:100200002D3758F50196A11DB11D20930D01809346
:100210000E0190930F01A0931001B09311018091F2
:10022000090190910A01A0910B01B0910C01019676
:10023000A11DB11D8093090190930A01A0930B01A8
:10024000B0930C01BF91AF919F918F913F912F91EE
:100250000F900FBE0F901F90189526E8230F02965F
:10026000A11DB11DD2CF789484B5826084BD84B5C0
:10027000816084BD85B5826085BD85B5816085BDA1
:1002800080916E00816080936E0010928100809159
:1002900081008260809381008091810081608093E1
:1002A0008100809180008160809380008091B10006
:1002B00084608093B1008091B00081608093B00031
:1002C00080917A00846080937A0080917A008260C5
:1002D00080937A0080917A00816080937A00809187
:1002E0007A00806880937A001092C10061E08DE00E
:1002F0000E94B80061E089E00E94B80060E08CE0F4
:100300000E94B80030E4C32E4DEAE42E40E0F42E03
:1003100000E010E0BB24B39480910101811119C069
:10032000C0927C0080917A00806480937A008091F2
:100330007A0086FDFCCF809178009091790097FD3E
:100340000396959587959595879580930001B09232
:100350000101D0900001CD2DD0E061E089E00E9444
:10036000B800209749F480E00E9470000115110543
:1003700099F20E940000D0CFCF3FD10511F481E067
:10038000F3CFF7018491833019F140F48130B1F05B
:100390008230C9F0C038D10594F7E5CF873011F12C
:1003A000883041F18430B1F7809180008062809381
:1003B0008000D0938B00C0938A00D8CF84B580682A
:1003C00084BDD7BCD3CF84B5806284BDD8BCCECF2A
:1003D00080918000806880938000D0938900C093D2
:1003E0008800C4CF8091B00080688093B000D09224
:1003F000B300BCCF8091B00080628093B000D092F7
:08040000B400B4CFF894FFCF63
:107E0000112484B714BE81FFF0D085E080938100F7
:107E100082E08093C00088E18093C10086E0809377
:107E2000C20080E18093C4008EE0C9D0259A86E02C
:107E300020E33CEF91E0309385002093840096BBD3
:107E4000B09BFECF1D9AA8958150A9F7CC24DD24C4
:107E500088248394B5E0AB2EA1E19A2EF3E0BF2EE7
:107E6000A2D0813461F49FD0082FAFD0023811F036
:107E7000013811F484E001C083E08DD089C08234E0
:107E800011F484E103C0853419F485E0A6D080C0E4
:107E9000853579F488D0E82EFF2485D0082F10E0AE
:107EA000102F00270E291F29000F111F8ED06801E7
:107EB0006FC0863521F484E090D080E0DECF843638
:107EC00009F040C070D06FD0082F6DD080E0C81688
:107ED00080E7D80618F4F601B7BEE895C0E0D1E017
:107EE00062D089930C17E1F7F0E0CF16F0E7DF06D8
:107EF00018F0F601B7BEE89568D007B600FCFDCFD4
:107F0000A601A0E0B1E02C9130E011968C91119780
:107F100090E0982F8827822B932B1296FA010C0160
:107F200087BEE89511244E5F5F4FF1E0A038BF0790
:107F300051F7F601A7BEE89507B600FCFDCF97BE46
:107F4000E89526C08437B1F42ED02DD0F82E2BD052
:107F50003CD0F601EF2C8F010F5F1F4F84911BD097
:107F6000EA94F801C1F70894C11CD11CFA94CF0C13
:107F7000D11C0EC0853739F428D08EE10CD085E9AC
:107F80000AD08FE07ACF813511F488E018D01DD067
:107F900080E101D065CF982F8091C00085FFFCCF94
:107FA0009093C60008958091C00087FFFCCF809118
:107FB000C00084FD01C0A8958091C6000895E0E648
:107FC000F0E098E1908380830895EDDF803219F02E
:107FD00088E0F5DFFFCF84E1DECF1F93182FE3DFCA
:107FE0001150E9F7F2DF1F91089580E0E8DFEE27F6
:047FF000FF270994CA
:027FFE00040479
:00000001FF
