:100000000C9462000C948A000C948A000C948A0070
:100010000C948A000C948A000C948A000C948A0038
:100020000C948A000C948A000C948A000C948A0028
:100030000C948A000C948A000C948A000C948A0018
:100040000C94D1020C948A000C9441030C941B0371
:100050000C948A000C948A000C948A000C948A00F8
:100060000C948A000C948A000000000024002700F1
:100070002A0000000000250028002B0000000000DE
:1000800023002600290004040404040404040202DA
:100090000202020203030303030301020408102007
:1000A0004080010204081020010204081020000012
:1000B0000008000201000003040700000000000027
:1000C0000000440511241FBECFEFD8E0DEBFCDBF36
:1000D00011E0A0E0B1E0E0EAFBE002C005900D9283
:1000E000A835B107D9F722E0A8E5B1E001C01D921B
:1000F000A430B207E1F710E0C2E6D0E004C02197D7
:10010000FE010E94C805C136D107C9F70E947303DA
:100110000C94CE050C94000080E480937C008091C8
:100120007A00806480937A0080917A0086FDFCCF0B
:1001300080917800909179000895833081F028F4BF
:10014000813099F08230A9F008958730A9F0883085
:10015000C9F08430B1F4809180008F7D03C080911C
:1001600080008F7780938000089584B58F7784BD59
:10017000089584B58F7DFBCF8091B0008F778093F9
:10018000B00008958091B0008F7DF9CFCF93DF93B9
:10019000282F30E0F901E255FF4F8491F901E6562E
:1001A000FF4FD491F901EA57FF4FC491CC23A1F03E
:1001B00081110E949D00EC2FF0E0EE0FFF1FE4582C
:1001C000FF4FA591B491EC91ED2381E090E009F40B
:1001D00080E0DF91CF91089580E090E0FACF1F9307
:1001E000CF93DF93282F30E0F901E255FF4F849140
:1001F000F901E656FF4FD491F901EA57FF4FC49138
:10020000CC23A9F0162F81110E949D00EC2FF0E065
:10021000EE0FFF1FEE58FF4FA591B4918FB7F894E2
:10022000EC91111108C0D095DE23DC938FBFDF91D4
:10023000CF911F910895DE2BF8CFCF93DF9390E0FD
:10024000FC01E656FF4F24918A579F4FFC01849191
:100250008823D1F090E0880F991FFC01E859FF4FE7
:10026000A591B491FC01EE58FF4FC591D491623035
:1002700071F49FB7F8943C91822F809583238C93DF
:10028000E8812E2B28839FBFDF91CF9108958FB7F0
:10029000F894EC912E2B2C938FBFF6CF3FB7F894A8
:1002A0008091630190916401A0916501B091660114
:1002B00026B5A89B05C02F3F19F00196A11DB11DC1
:1002C0003FBFBA2FA92F982F8827BC01CD01620FFD
:1002D000711D811D911D42E0660F771F881F991FB8
:1002E0004A95D1F70895AF92BF92CF92DF92EF92E5
:1002F000FF920F931F93CF93DF936C017B018B01D0
:10030000040F151FEB015E01AE18BF08C017D1071F
:1003100059F06991D601ED91FC910190F081E02DA9
:10032000C6010995892B79F7C501DF91CF911F91FE
:100330000F91FF90EF90DF90CF90BF90AF90089516
:10034000FC01538D448D252F30E0842F90E0821BDB
:10035000930B541710F0CF96089501970895FC0160
:10036000918D828D981761F0A28DAE0FBF2FB11DB8
:100370005D968C91928D9F5F9F73928F90E0089510
:100380008FEF9FEF0895FC01918D828D981731F0CA
:10039000828DE80FF11D858D90E008958FEF9FEF1E
:1003A0000895FC01918D228D892F90E0805C9F4FF4
:1003B000821B91098F739927089587E691E00E9427
:1003C000D10121E0892B09F420E0822F089580E0FB
:1003D00090E0892B29F00E94DD0181110C9400002E
:1003E0000895FC01A48DA80FB92FB11DA35ABF4FCA
:1003F0002C91848D90E001968F739927848FA68924
:10040000B7892C93A089B1898C91837080648C9377
:10041000938D848D981306C00288F389E02D808126
:100420008F7D80830895EF92FF920F931F93CF9358
:10043000DF93EC0181E0888F9B8D8C8D98131AC01F
:10044000E889F989808185FF15C09FB7F894EE8906
:10045000FF896083E889F989808183708064808363
:100460009FBF81E090E0DF91CF911F910F91FF90AE
:10047000EF900895F62E0B8D10E00F5F1F4F0F7356
:100480001127E02E8C8D8E110CC00FB607FCFACF11
:10049000E889F989808185FFF5CFCE010E94F101BD
:1004A000F1CFEB8DEC0FFD2FF11DE35AFF4FF082E2
:1004B0009FB7F8940B8FEA89FB8980818062CFCF48
:1004C000CF93DF93EC01888D8823B9F0AA89BB898B
:1004D000E889F9898C9185FD03C0808186FD0DC076
:1004E0000FB607FCF7CF8C9185FFF2CF808185FF97
:1004F000EDCFCE010E94F101E9CFDF91CF910895B8
:10050000FC0101900020E9F73197AF01481B590B1E
:10051000BC0187E691E00C9473018F929F92AF9299
:10052000BF920F931F93CF93DF93CDB7DEB7A19701
:100530000FB6F894DEBF0FBECDBF19A2423008F44B
:100540004AE08E010F5D1F4F842E912CB12CA12CFF
:10055000A50194010E949005E62FB901CA01EA3075
:10056000F4F4E05DD801EE938D01232B242B252B91
:1005700079F790E080E0109719F0CD010E94800299
:10058000A1960FB6F894DEBF0FBECDBFDF91CF911D
:100590001F910F91BF90AF909F908F900895E95C4D
:1005A000E1CF1F920F920FB60F9211242F933F931A
:1005B0008F939F93AF93BF9380915F019091600160
:1005C000A0916101B091620130915E0123E0230F9F
:1005D0002D3758F50196A11DB11D20935E01809322
:1005E0005F0190936001A0936101B09362018091DB
:1005F000630190916401A0916501B091660101963B
:10060000A11DB11D8093630190936401A0936501C6
:10061000B0936601BF91AF919F918F913F912F91C0
:100620000F900FBE0F901F90189526E8230F02968B
:10063000A11DB11DD2CF1F920F920FB60F921124A0
:100640002F933F934F935F936F937F938F939F93DA
:10065000AF93BF93EF93FF9387E691E00E94F10180
:10066000FF91EF91BF91AF919F918F917F916F918A
:100670005F914F913F912F910F900FBE0F901F9060
:1006800018951F920F920FB60F9211242F938F93EC
:100690009F93EF93FF93E0917701F0917801808130
:1006A000E0917D01F0917E0182FD1BC090818091DF
:1006B00080018F5F8F7320918101821741F0E0915B
:1006C0008001F0E0E959FE4F958F80938001FF9102
:1006D000EF919F918F912F910F900FBE0F901F90D0
:1006E00018958081F4CFCF93DF9300D000D0CDB7A1
:1006F000DEB7789484B5826084BD84B5816084BDA2
:1007000085B5826085BD85B5816085BD80916E00AF
:10071000816080936E0010928100809181008260E0
:10072000809381008091810081608093810080911D
:1007300080008160809380008091B100846080930C
:10074000B1008091B00081608093B00080917A0008
:10075000846080937A0080917A00826080937A002E
:1007600080917A00816080937A0080917A0080681D
:1007700080937A001092C100E0917701F0917801A6
:1007800082E08083E0917301F09174011082E09126
:100790007501F09176018FEC808310927F01E091DA
:1007A0007B01F0917C0186E08083E0917901F091FA
:1007B0007A01808180618083E0917901F0917A01F2
:1007C000808188608083E0917901F0917A01808155
:1007D00080688083E0917901F0917A0180818F7D3A
:1007E000808361E08DE00E941D0161E089E00E944C
:1007F0001D0162E08CE00E941D018FB7F89480908B
:100800005F0190906001A0906101B09062018FBF84
:100810000E948C0089839B838CE00E94C6008C011F
:1008200021E02A83892B09F41A823A81309300014E
:100830000E948C001C01012B89F580915D018823A9
:1008400069F10E944E012B013C0192E3C92ED12C8B
:10085000E12CF12C0E944E01641975098609970953
:10086000683E734081059105A8F341E0C41AD108A0
:10087000E108F10858EE450E53E0551E611C711C4D
:10088000C114D104E104F10429F760915C01F1E0A5
:100890006F2760935C018DE00E94EF002A81209316
:1008A0005D0180915C01811132C089819B8197FD3E
:1008B0000396AC0155954795559547955C834B83B9
:1008C000FB8083E191E00E94800284E291E00E943B
:1008D00080020B811C81112761E089E00E941D01CB
:1008E0000115110509F085C060E089E00E94EF0064
:1008F00087E291E00E9480026F2D70E090E080E03E
:100900004AE00E948D0284E291E00E948002809180
:100910005C01882309F460C026EB33E0D1010E941A
:10092000C1052FEF33E040E050E00E94710529013E
:100930003A017A01690152E3C50ED11CE11CF11C98
:100940008091580190915901A0915A01B0915B0199
:10095000A5019401281B390B4A0B5B0BDA01C90175
:100960008C159D05AE05BF05B8F180925801909297
:100970005901A0925A01B0925B0188E391E00E9474
:10098000800284E291E00E94800289E00E94C60019
:1009900061E0892B09F060E089E00E94EF0089E4C2
:1009A00091E00E9480024AE0C701B601F7FE0EC046
:1009B0006DE287E691E00E9413026EEC7FEF8FEF0D
:1009C0009FEF64197509860997094AE00E948D0214
:1009D00084E291E00E94800240E050E0452B09F45F
:1009E0000CCF0E94DD01882309F407CF0E9400008C
:1009F00004CF0F3F110511F461E077CFE7EBF0E092
:100A00008491833029F140F48130B1F08230D1F00B
:100A1000003811058CF768CF873021F1883059F103
:100A20008430B1F7809180008062809380001093C1
:100A30008B0000938A005CCF84B5806884BDFB8105
:100A4000F7BD56CF84B5806284BD2B8128BD50CFC1
:100A500080918000806880938000109389000093CB
:100A6000880046CF8091B00080688093B0003B81C1
:100A70003093B3003DCF8091B00080628093B0008E
:100A80004B814093B40034CFE7E6F1E01382128249
:100A900088EE93E0A0E0B0E084839583A683B783DB
:100AA00085E091E09183808385EC90E09587848751
:100AB00084EC90E09787868780EC90E0918B808B28
:100AC00081EC90E0938B828B82EC90E0958B848B11
:100AD00086EC90E0978B868B118E128E138E148E7F
:100AE0000895052E97FB1EF400940E94880557FD7B
:100AF00007D00E94900507FC03D04EF40C948805A3
:100B000050954095309521953F4F4F4F5F4F089539
:100B100090958095709561957F4F8F4F9F4F089569
:100B2000A1E21A2EAA1BBB1BFD010DC0AA1FBB1FF1
:100B3000EE1FFF1FA217B307E407F50720F0A21B63
:100B4000B30BE40BF50B661F771F881F991F1A94D0
:100B500069F760957095809590959B01AC01BD01FA
:100B6000CF010895A29FB001B39FC001A39F700D54
:100B7000811D1124911DB29F700D811D1124911DA5
:100B800008950E94B205B7FF0895821B930B089544
:100B9000EE0FFF1F0590F491E02D0994F894FFCF1C
:100BA000010000000013027301A0016002D101AF37
:100BB00001C3014D6F64652031206163746976C3A0
:100BC000A92021000D0A004C656420696E74656ED1
:100BD00073697479203D20004D6F64652032206177
:100BE00063746976C3A92021004C6F6F702064750F
:080BF000726174696F6E000070
:00000001FF
