:020000040000FA
:100000000C9462000C948A000C948A000C948A0070
:100010000C948A000C948A000C948A000C948A0038
:100020000C948A000C948A000C948A000C948A0028
:100030000C948A000C948A000C948A000C948A0018
:100040000C9450020C948A000C94C0020C949A02F6
:100050000C948A000C948A000C948A000C948A00F8
:100060000C948A000C948A000000000023002600F3
:10007000290000000000240027002A0000000000E2
:10008000250028002B0004040404040404040202D4
:100090000202020203030303030301020408102007
:1000A0004080010204081020010204081020000012
:1000B0000008000201000003040700000000000027
:1000C0000000A00411241FBECFEFD8E0DEBFCDBFDB
:1000D00011E0A0E0B1E0EEEEF9E002C005900D9273
:1000E000A632B107D9F721E0A6E2B1E001C01D9226
:1000F000A03DB207E1F710E0C2E6D0E004C02197CE
:10010000FE010E94EF04C136D107C9F70E94F20236
:100110000C94F5040C940000833081F028F48130B5
:1001200099F08230A9F008958730A9F08830C9F09D
:100130008430B1F4809180008F7D03C08091800075
:100140008F7780938000089584B58F7784BD08955C
:1001500084B58F7DFBCF8091B0008F778093B00006
:1001600008958091B0008F7DF9CF1F93CF93DF93D7
:10017000E7EBF0E09491E3EAF0E0D491EFE8F0E00F
:10018000C491CC23B9F0182F992319F0892F0E941C
:100190008C00EC2FF0E0EE0FFF1FE458FF4FA5910D
:1001A000B4918FB7F894EC91111108C0D095DE236B
:1001B000DC938FBFDF91CF911F910895DE2BF8CF95
:1001C000CF93DF9390E0FC01E656FF4F24918A57CE
:1001D0009F4FFC0184918823D1F090E0880F991FF4
:1001E000FC01EE58FF4FA591B491FC01E458FF4F7C
:1001F000C591D49161110EC09FB7F8948C91E22FF4
:10020000E0958E238C932881E223E8839FBFDF91C2
:10021000CF9108958FB7F894EC91E22BEC938FBFB8
:10022000F6CF3FB7F89480912F0190913001A091C3
:100230003101B091320126B5A89B05C02F3F19F0BE
:100240000196A11DB11D3FBFBA2FA92F982F882756
:10025000BC01CD01620F711D811D911D42E0660F31
:10026000771F881F991F4A95D1F70895AF92BF92C3
:10027000CF92DF92EF92FF920F931F93CF93DF9372
:100280006C017B018B01040F151FEB015E01AE18A1
:10029000BF08C017D10759F06991D601ED91FC91C3
:1002A0000190F081E02DC6010995892B79F7C501F0
:1002B000DF91CF911F910F91FF90EF90DF90CF9042
:1002C000BF90AF900895FC01538D448D252F30E0F1
:1002D000842F90E0821B930B541710F0CF96089553
:1002E00001970895FC01918D828D981761F0A28D80
:1002F000AE0FBF2FB11D5D968C91928D9F5F9F7346
:10030000928F90E008958FEF9FEF0895FC01918DFB
:10031000828D981731F0828DE80FF11D858D90E068
:1003200008958FEF9FEF0895FC01918D228D892F05
:1003300090E0805C9F4F821B91098F7399270895ED
:1003400083E391E00E94940121E0892B09F420E0ED
:10035000822F089580E090E0892B29F00E94A0016F
:1003600081110C9400000895FC01A48DA80FB92FF1
:10037000B11DA35ABF4F2C91848D90E001968F73CD
:100380009927848FA689B7892C93A089B1898C91EC
:10039000837080648C93938D848D981306C002883B
:1003A000F389E02D80818F7D80830895EF92FF9205
:1003B0000F931F93CF93DF93EC0181E0888F9B8D88
:1003C0008C8D98131AC0E889F989808185FF15C042
:1003D0009FB7F894EE89FF896083E889F989808165
:1003E0008370806480839FBF81E090E0DF91CF9134
:1003F0001F910F91FF90EF900895F62E0B8D10E056
:100400000F5F1F4F0F731127E02E8C8D8E110CC0C4
:100410000FB607FCFACFE889F989808185FFF5CF0F
:10042000CE010E94B401F1CFEB8DEC0FFD2FF11D39
:10043000E35AFF4FF0829FB7F8940B8FEA89FB894C
:1004400080818062CFCFCF93DF93EC01888D8823AA
:10045000B9F0AA89BB89E889F9898C9185FD03C027
:10046000808186FD0DC00FB607FCF7CF8C9185FF0C
:10047000F2CF808185FFEDCFCE010E94B401E9CF9C
:10048000DF91CF910895FC0101900020E9F73197A9
:10049000AF01481B590BBC0183E391E00C9436017A
:1004A0001F920F920FB60F9211242F933F938F93A9
:1004B0009F93AF93BF9380912B0190912C01A091BA
:1004C0002D01B0912E0130912A0123E0230F2D3709
:1004D00058F50196A11DB11D20932A0180932B018F
:1004E00090932C01A0932D01B0932E0180912F01A8
:1004F00090913001A0913101B09132010196A11D7E
:10050000B11D80932F0190933001A0933101B093DE
:100510003201BF91AF919F918F913F912F910F9099
:100520000FBE0F901F90189526E8230F0296A11D6D
:10053000B11DD2CF1F920F920FB60F9211242F939D
:100540003F934F935F936F937F938F939F93AF935B
:10055000BF93EF93FF9383E391E00E94B401FF9177
:10056000EF91BF91AF919F918F917F916F915F912B
:100570004F913F912F910F900FBE0F901F901895A4
:100580001F920F920FB60F9211242F938F939F9368
:10059000EF93FF93E0914301F09144018081E0915A
:1005A0004901F0914A0182FD1BC0908180914C016C
:1005B0008F5F8F7320914D01821741F0E0914C01C4
:1005C000F0E0ED5CFE4F958F80934C01FF91EF9131
:1005D0009F918F912F910F900FBE0F901F901895A4
:1005E0008081F4CFCF93DF93CDB7DEB7A1970FB65D
:1005F000F894DEBF0FBECDBF789484B5826084BD11
:1006000084B5816084BD85B5826085BD85B5816016
:1006100085BD80916E00816080936E001092810094
:10062000809181008260809381008091810081604F
:100630008093810080918000816080938000809110
:10064000B10084608093B1008091B000816080939C
:10065000B00080917A00846080937A0080917A0063
:10066000826080937A0080917A00816080937A0022
:1006700080917A00806880937A001092C100E091A6
:100680004301F091440182E08083E0913F01F091C9
:1006900040011082E0914101F09142018FEC808392
:1006A00010924B01E0914701F091480186E0808370
:1006B000E0914501F0914601808180618083E09165
:1006C0004501F0914601808188608083E091450179
:1006D000F0914601808180688083E0914501F0912E
:1006E000460180818F7D808361E089E00E94E00087
:1006F00060E08CE00E94E0003AE0432E512C612C37
:10070000712C22E9222E20E0322E00E010E0EAEBEC
:10071000F0E08491E6EAF0E0F490F101E490E11079
:1007200010C01092290180912901809328010115A0
:10073000110569F30E94A001882339F30E9400008B
:10074000E0CF81110E948C00EE2DF0E0EE0FFF1F34
:10075000E859FF4FA591B4918C91F82281E009F4FA
:1007600080E080932901FF20F1F28091280181111E
:10077000DACF80912601909127018035910551F0C3
:10078000803A910509F477C0892B09F077C080E59C
:1007900090E002C080EA90E09093270180932601C8
:1007A00082E191E00E944302C0902601D09027018F
:1007B0000D2C000CEE08FF08F7FE63C06DE283E32A
:1007C00091E00E94D60122273327A9012C193D0967
:1007D0004E095F0919A2CE0181967C01CA01B901B7
:1007E000A30192010E94CD04605DF70162937F0135
:1007F000211531054105510589F7E114F10419F07E
:10080000C7010E94430283E291E00E944302E0900C
:100810002601F090270161E089E00E94E000E114E8
:10082000F10409F044C080E00E94B5000E9411016B
:100830004B015C0182E3C82ED12CE12CF12C0E94EB
:100840001101681979098A099B09683E734081057D
:100850009105A8F321E0C21AD108E108F10888EE59
:10086000880E83E0981EA11CB11CC114D104E104C0
:10087000F10429F758CF8FEF90E08ECF90E080E021
:100880008BCFA701960119A2CE0181967C01CA01E6
:10089000B901A30192010E94CD04605DF70162934A
:1008A0007F01211531054105510589F7A6CFFFEFDD
:1008B000EF16F10411F481E0B7CFE7EBF0E084919B
:1008C000833021F148F48130B9F08230D1F0F0E882
:1008D000EF16F10484F7A7CF873011F1883041F18A
:1008E0008430A9F780918000806280938000F0922C
:1008F0008B00E0928A009ACF84B5806884BDE7BC03
:1009000095CF84B5806284BDE8BC90CF8091800093
:10091000806880938000F0928900E092880086CF02
:100920008091B00080688093B000E092B3007ECFE9
:100930008091B00080628093B000E092B40076CFE6
:10094000E3E3F1E01382128288EE93E0A0E0B0E0EE
:1009500084839583A683B78384E091E09183808329
:1009600085EC90E09587848784EC90E09787868774
:1009700080EC90E0918B808B81EC90E0938B828B6C
:1009800082EC90E0958B848B86EC90E0978B868B45
:10099000118E128E138E148E0895A1E21A2EAA1BA8
:1009A000BB1BFD010DC0AA1FBB1FEE1FFF1FA2171F
:1009B000B307E407F50720F0A21BB30BE40BF50B1C
:1009C000661F771F881F991F1A9469F760957095A5
:1009D000809590959B01AC01BD01CF010895EE0F6C
:1009E000FF1F0590F491E02D0994F894FFCF0000CB
:1009F0000000D601360163012302940172018601D1
:100A00004E69766561752061637475656C203A2066
:040A1000000D0A00CB
:107E0000112484B714BE81FFF0D085E080938100F7
:107E100082E08093C00088E18093C10086E0809377
:107E2000C20080E18093C4008EE0C9D0259A86E02C
:107E300020E33CEF91E0309385002093840096BBD3
:107E4000B09BFECF1D9AA8958150A9F7CC24DD24C4
:107E500088248394B5E0AB2EA1E19A2EF3E0BF2EE7
:107E6000A2D0813461F49FD0082FAFD0023811F036
:107E7000013811F484E001C083E08DD089C08234E0
:107E800011F484E103C0853419F485E0A6D080C0E4
:107E9000853579F488D0E82EFF2485D0082F10E0AE
:107EA000102F00270E291F29000F111F8ED06801E7
:107EB0006FC0863521F484E090D080E0DECF843638
:107EC00009F040C070D06FD0082F6DD080E0C81688
:107ED00080E7D80618F4F601B7BEE895C0E0D1E017
:107EE00062D089930C17E1F7F0E0CF16F0E7DF06D8
:107EF00018F0F601B7BEE89568D007B600FCFDCFD4
:107F0000A601A0E0B1E02C9130E011968C91119780
:107F100090E0982F8827822B932B1296FA010C0160
:107F200087BEE89511244E5F5F4FF1E0A038BF0790
:107F300051F7F601A7BEE89507B600FCFDCF97BE46
:107F4000E89526C08437B1F42ED02DD0F82E2BD052
:107F50003CD0F601EF2C8F010F5F1F4F84911BD097
:107F6000EA94F801C1F70894C11CD11CFA94CF0C13
:107F7000D11C0EC0853739F428D08EE10CD085E9AC
:107F80000AD08FE07ACF813511F488E018D01DD067
:107F900080E101D065CF982F8091C00085FFFCCF94
:107FA0009093C60008958091C00087FFFCCF809118
:107FB000C00084FD01C0A8958091C6000895E0E648
:107FC000F0E098E1908380830895EDDF803219F02E
:107FD00088E0F5DFFFCF84E1DECF1F93182FE3DFCA
:107FE0001150E9F7F2DF1F91089580E0E8DFEE27F6
:047FF000FF270994CA
:027FFE00040479
:00000001FF
