:020000040000FA
:100000000C9458000C9480000C9480000C94800098
:100010000C9480000C9480000C9480000C94800060
:100020000C9480000C9480000C9480000C94800050
:100030000C9480000C9480000C9480000C94800040
:100040000C9452050C9480000C94C2050C949C05F1
:100050000C9480000C9480000C9480000C94800020
:100060000C94F4050C94800000000000250028008A
:100070002B00040404040404040402020202020229
:10008000030303030303010204081020408001025C
:1000900004081020010204081020000000080002DB
:1000A0000100000304070000000000000000130727
:1000B00011241FBECFEFD8E0DEBFCDBF23E0ACEFF1
:1000C000B1E001C01D92A33AB207E1F711E0A0E050
:1000D000B1E0EAE9F4E202C005900D92AC3FB1074D
:1000E000D9F710E0C8E5D0E004C02197FE010E94D6
:1000F000B20DC735D107C9F70E948E070C944B1279
:100100000C94000090E0FC01E656FF4F2491FC01A6
:10011000EA57FF4F3491FC01EE58FF4FE491EE2374
:10012000C9F0222339F0233001F1A8F4213019F16C
:10013000223029F1F0E0EE0FFF1FE859FF4FA591A3
:10014000B4918FB7F894EC91611126C030953E239D
:100150003C938FBF08952730A9F02830C9F0243090
:1001600049F7809180008F7D03C0809180008F7758
:1001700080938000DFCF84B58F7784BDDBCF84B5DB
:100180008F7DFBCF8091B0008F778093B000D2CF6E
:100190008091B0008F7DF9CF3E2BDACF3FB7F89436
:1001A00080916B0290916C02A0916D02B0916E02F1
:1001B00026B5A89B05C02F3F19F00196A11DB11DC2
:1001C0003FBFBA2FA92F982F8827BC01CD01620FFE
:1001D000711D811D911D42E0660F771F881F991FB9
:1001E0004A95D1F708958F929F92AF92BF92CF9286
:1001F000DF92EF92FF924B015C010E94CE006B01F7
:100200007C010E94CE006C197D098E099F09683E11
:10021000734081059105A8F321E0821A9108A10895
:10022000B10888EEC80E83E0D81EE11CF11C8114D1
:100230009104A104B10429F7FF90EF90DF90CF90D3
:10024000BF90AF909F908F90089508950895AF92BA
:10025000BF92CF92DF92EF92FF920F931F93CF93B3
:10026000DF936C017B018B01040F151FEB015E0115
:10027000AE18BF08C017D10759F06991D601ED91AA
:10028000FC910190F081E02DC6010995892B79F749
:10029000C501DF91CF911F910F91FF90EF90DF90FB
:1002A000CF90BF90AF900895FC01538D448D252FC2
:1002B00030E0842F90E0821B930B541710F0CF9600
:1002C000089501970895FC01918D828D981761F032
:1002D000A28DAE0FBF2FB11D5D968C91928D9F5F49
:1002E0009F73928F90E008958FEF9FEF0895FC0128
:1002F000918D828D981731F0828DE80FF11D858DDB
:1003000090E008958FEF9FEF0895FC01918D228D6D
:10031000892F90E0805C9F4F821B91098F739927F2
:1003200008958FEB92E00E94850121E0892B09F46A
:1003300020E0822F089580E090E0892B29F00E9430
:10034000910181110C9400000895FC01A48DA80F67
:10035000B92FB11DA35ABF4F2C91848D90E0019607
:100360008F739927848FA689B7892C93A089B18927
:100370008C91837080648C93938D848D981306C0C8
:100380000288F389E02D80818F7D80830895EF922C
:10039000FF920F931F93CF93DF93EC0181E0888F3F
:1003A0009B8D8C8D98131AC0E889F989808185FF0F
:1003B00015C09FB7F894EE89FF896083E889F989B1
:1003C00080818370806480839FBF81E090E0DF91B3
:1003D000CF911F910F91FF90EF900895F62E0B8D06
:1003E00010E00F5F1F4F0F731127E02E8C8D8E11C1
:1003F0000CC00FB607FCFACFE889F989808185FF28
:10040000F5CFCE010E94A501F1CFEB8DEC0FFD2FB2
:10041000F11DE35AFF4FF0829FB7F8940B8FEA89E2
:10042000FB8980818062CFCFCF93DF93EC01888DF1
:100430008823B9F0AA89BB89E889F9898C9185FD5F
:1004400003C0808186FD0DC00FB607FCF7CF8C91ED
:1004500085FFF2CF808185FFEDCFCE010E94A501FF
:10046000E9CFDF91CF91089520913D02260F3327E8
:10047000331F21323105ECF420919502FC0190E00C
:1004800080E0243069F082E00895A0913D0221913E
:10049000AC01435E5D4FA40FB52FB11D2C930196A7
:1004A000861798F380913D02680F60933D0280E0CB
:1004B000089581E008951092950281E0809394025E
:1004C00010926F0261E082E10E94820061E083E1AC
:1004D0000E948200E9EBF0E080818E7F8083808142
:1004E0008D7F808388E48093B80085E48093BC008E
:1004F0000895CF93DF9391E090931C028823B9F085
:10050000C091B800D091BA008091BC008A7B8093E2
:10051000BC0060E082E10E94820060E083E10E9412
:1005200082000E945B02D093BA00C093B800DF91B2
:10053000CF910895CF92DF92EF92FF920F931F9386
:10054000CF93DF93FC01A385B485848191E09093E0
:10055000BE028093BD021092BC021092BB02ED91CC
:10056000FC9111970280F381E02D42E050E0CD0133
:100570000995D091BB0281E0D13208F09CC0C091B6
:10058000BD020E94CE006B017C0180919502811119
:100590006CC082E08093950281E0809394028FEF9B
:1005A0008093930210929202D0939102ABE9B2E051
:1005B000E1E7F2E080E0D8138EC0109270028091E3
:1005C0007002CC0FC82BC093700280916F028130F3
:1005D00009F085C010926F020E94CE006B017C0171
:1005E000809170028093BB00809197029091980255
:1005F000A0919902B0919A02892B8A2B8B2BA1F0A2
:100600000E94CE00009197021091980220919902C9
:1006100030919A026C197D098E099F0906171707F8
:100620002807390708F442C08091BC0083FDD8CF69
:1006300085EC8093BC000E94CE006B017C01809110
:100640009502823009F44DC0809193028F3F09F4E6
:100650006AC080919302803209F467C0809193024E
:10066000803309F464C084E026C0809197029091A1
:100670009802A0919902B0919A02892B8A2B8B2B18
:1006800009F483CF0E94CE00009197021091980246
:100690002091990230919A026C197D098E099F0967
:1006A000061717072807390708F06FCF80919602C1
:1006B0000E94790285E01092BC021092BB02109257
:1006C000BE0290E0DF91CF911F910F91FF90EF90CC
:1006D000DF90CF9008959D9191938F5F6CCF85EEC1
:1006E000A8CF8091970290919802A0919902B09121
:1006F0009A02892B8A2B8B2B09F4A1CF0E94CE0062
:1007000000919702109198022091990230919A02DB
:100710006C197D098E099F090617170728073907E5
:1007200008F08DCFC3CF80E0C6CF82E0C4CF83E096
:10073000C2CFCF93DF9300D0CDB7DEB719828A83C3
:10074000BE016F5F7F4F88E693E00E949A02E3EC60
:10075000F0E03197F1F70F900F90DF91CF9108956E
:1007600020917203019741F42D7F209372038091B1
:10077000720384600C9499032260F7CF81E00E9499
:1007800099038BE89AE10197F1F7089582E00E94BE
:1007900099038BE89AE10197F1F70895CF93DF93DE
:1007A00000D000D0CDB7DEB7198290E49A83909143
:1007B0006E039B83905C9C8390916D03891710F06E
:1007C0008FEF890FFE01E80FF11D60688181862B94
:1007D0000F900F900F900F90DF91CF910C94990391
:1007E0000895E091650280916402E81730F4F0E02A
:1007F000E450FE4F808190E008958FEF9FEF0895C1
:1008000090916502809164022FEF3FEF981748F4B2
:10081000E92FF0E0E450FE4F208130E09F5F90939D
:100820006502C90108958091640290916502891B57
:10083000990B0895CF92DF92EF92FF920F931F933F
:10084000CF93DF937C01CB018A012091BE0222234A
:1008500089F0EB016B01C40ED51ECC15DD0569F0E6
:100860006991D701ED91FC910190F081E02DC701D4
:100870000995F3CF642F0E943402C801DF91CF9114
:100880001F910F91FF90EF90DF90CF900895CF933D
:10089000DF931F92CDB7DEB769832091BE0222237A
:1008A000F9F02091BB02203258F021E030E0FC0149
:1008B0003383228390E080E00F90DF91CF91089501
:1008C0008091BC02E82FF0E0E556FD4F99819083BE
:1008D0008F5F8093BC028093BB0281E090E0ECCFFD
:1008E00061E0CE0101960E943402F7CFCF93DF93EF
:1008F00000D0CDB7DEB720E429836A83BE016F5FE5
:100900007F4F0E949A02E3ECF0E03197F1F70F90ED
:100910000F90DF91CF9108950F931F93CF93DF93A3
:100920008B0123E0880F991F2A95E1F780640E94CC
:10093000990380916F038823A1F08AE090E0E80199
:10094000080F191F699188E693E00E947604C0178A
:10095000D107C1F780E8DF91CF911F910F910C94DF
:10096000990388E090E0EBCF0E94760421E030E02C
:10097000892B11F030E020E0C9010895089590E03E
:1009800080E008958F929F92AF92BF920F931F9332
:10099000CF93DF93CDB7DEB7A1970FB6F894DEBF44
:1009A0000FBECDBF19A2423008F44AE08E010F5DA0
:1009B0001F4F842E912CB12CA12CA50194010E94D3
:1009C0007C0DE62FB901CA01EA3044F5E05DD8019B
:1009D000EE938D01232B242B252B79F790E080E0DB
:1009E000109769F0FD0101900020E9F73197AF0100
:1009F0004A1B5B0BBD0188E693E00E942701A1968C
:100A00000FB6F894DEBF0FBECDBFDF91CF911F911F
:100A10000F91BF90AF909F908F900895E95CD7CFD2
:100A2000FB0101900020E9F73197AF01461B570BFE
:100A30000C94270185ED8093BC00809197029091E2
:100A40009802A0919902B0919A020796A11DB11D3A
:100A500023E0B695A795979587952A95D1F720918C
:100A6000BC0024FD03C010929502089540919702A6
:100A7000509198026091990270919A02452B462BF1
:100A8000472B69F30097A105B10541F02AE22A95A9
:100A9000F1F700C00197A109B109E1CF8091960259
:100AA0000C9479021F920F920FB60F9211242F937C
:100AB0003F938F939F93AF93BF93809167029091E1
:100AC0006802A0916902B0916A023091660223E047
:100AD000230F2D3758F50196A11DB11D20936602F5
:100AE0008093670290936802A0936902B0936A02B0
:100AF00080916B0290916C02A0916D02B0916E0298
:100B00000196A11DB11D80936B0290936C02A0937E
:100B10006D02B0936E02BF91AF919F918F913F9103
:100B20002F910F900FBE0F901F90189526E8230F5E
:100B30000296A11DB11DD2CF1F920F920FB60F9238
:100B400011242F933F934F935F936F937F938F93D2
:100B50009F93AF93BF93EF93FF938FEB92E00E942D
:100B6000A501FF91EF91BF91AF919F918F917F91DF
:100B70006F915F914F913F912F910F900FBE0F900A
:100B80001F9018951F920F920FB60F9211242F935A
:100B90008F939F93EF93FF93E091CF02F091D00258
:100BA0008081E091D502F091D60282FD1BC0908138
:100BB0008091D8028F5F8F732091D902821741F004
:100BC000E091D802F0E0E154FD4F958F8093D80278
:100BD000FF91EF919F918F912F910F900FBE0F90EA
:100BE0001F9018958081F4CF1F920F920FB60F922D
:100BF00011242F933F934F935F936F937F938F9322
:100C00009F93AF93BF93EF93FF938091B900887F39
:100C1000803609F44AC0F0F5883209F4A7C018F507
:100C2000803109F49BC0B8F4882309F4F9C08830F6
:100C300009F494C0FF91EF91BF91AF919F918F9173
:100C40007F916F915F914F913F912F910F900FBEC8
:100C50000F901F901895883109F488C0803251F7A1
:100C60008093930214C0803409F49DC040F4803313
:100C7000B9F38833F9F68093930285ECB0C08035E0
:100C800009F485C0883509F496C0883499F60E9425
:100C90001A05D0CF883909F48CC038F5883729F087
:100CA00050F4883611F0803729F683E0809395025E
:100CB00010925F0257C0883809F47BC0803919F060
:100CC000803809F0B7CF80915F02803208F071C0A0
:100CD000E0915F0281E08E0F80935F028091BB0004
:100CE000F0E0E15CFD4F80833DC0803B39F0E0F4F3
:100CF000803A09F479C0883A09F09CCF84E0809367
:100D0000950210923E0210923D02E0916202F09133
:100D10006302099580913D0281110FC081E08093AB
:100D20003D0210921D0209C0803C09F4A6CF883C08
:100D300009F4A3CF883B09F07DCFE0913E0281E02A
:100D40008E0F80933E02F0E0E35EFD4F8081809342
:100D5000BB0090913E0280913D0229C080917002BB
:100D60008093BB0085EC8093BC0064CF909192028D
:100D700080919102981758F5E091920281E08E0FD0
:100D800080939202F0E0EF58FD4F8081E9CFE0912F
:100D9000920281E08E0F809392028091BB00F0E07E
:100DA000EF58FD4F808390919202809191029817A5
:100DB000C8F285E8D8CFE091920281E08E0F80934F
:100DC00092028091BB00F0E0EF58FD4F808380914C
:100DD000940281115CCF81E080936F0284EA80935A
:100DE000BC001092950226CF85EC8093BC00109237
:100DF000950280915F02803230F4E0915F02F0E072
:100E0000E15CFD4F108260915F0270E0E091600252
:100E1000F09161028FE392E0099510925F020ACF90
:100E20001092930234CFCF93DF93EFEBF2E0138273
:100E3000128288EE93E0A0E0B0E084839583A683DD
:100E4000B7832AE331E03183208325EC30E0358716
:100E5000248724EC30E03787268720EC30E0318B84
:100E6000208B21EC30E0338B228B22EC30E0358B71
:100E7000248B26EC30E0378B268B118E128E138E4E
:100E8000148EECE5F3E01382128284839583A683AB
:100E9000B7838CE491E091838083C8E6D3E01B8222
:100EA0001A828EE591E0998388831D861E8688E0EC
:100EB000EEE0F1E0A7E7B3E001900D928A95E1F74B
:100EC00088E0E6E1F1E0AFE7B3E001900D928A95AA
:100ED000E1F788E0EEE1F1E0A7E8B3E001900D92E0
:100EE0008A95E1F788E0E6E2F1E0AFE8B3E001904F
:100EF0000D928A95E1F788E0EEE2F1E0A7E9B3E030
:100F000001900D928A95E1F782E08D8380E18E83D6
:100F10001F8281E08887DF91CF910895CF93DF937F
:100F200000D000D000D0CDB7DEB7789484B5826011
:100F300084BD84B5816084BD85B5826085BD85B57D
:100F4000816085BD80916E00816080936E001092FB
:100F50008100809181008260809381008091810076
:100F60008160809381008091800081608093800007
:100F70008091B10084608093B1008091B000816065
:100F80008093B00080917A00846080937A00809191
:100F90007A00826080937A0080917A0081608093E9
:100FA0007A0080917A00806880937A001092C10064
:100FB000E091CF02F091D00282E08083E091CB02F9
:100FC000F091CC021082E091CD02F091CE0280E14E
:100FD00080831092D702E091D302F091D40286E090
:100FE0008083E091D102F091D20280818061808380
:100FF000E091D102F091D202808188608083E091FB
:10100000D102F091D202808180688083E091D10288
:10101000F091D20280818F7D80838EE380936C0378
:101020008CE593E0909374038093730310926502B0
:10103000109264021092BC021092BB020E945B02EA
:1010400085E291E0909363028093620286E291E0F0
:1010500090936102809360028091700310E0813070
:1010600009F410E180916D03823030F01860853012
:1010700018F084E080936D0380916F03813009F450
:10108000146062E370E080E090E00E94F300106280
:10109000812F0E94990365E070E080E090E00E945B
:1010A000F300812F0E9499038BEC97E00197F1F7F1
:1010B000812F0E949903809171038B7F809371032C
:1010C00088600E9499030E94BE0390E080E00E9425
:1010D000B00380917103982F9460909371038C609A
:1010E0000E94990360E071E090E080E00E948C042F
:1010F000CE0101963C0166E671E088E693E00E942D
:10110000100560E088E693E00E94760468EE73E0E4
:1011100080E090E00E94F3000E94BE0390E080E037
:101120000E94B00364E771E088E693E00E94100536
:1011300064EF71E080E090E00E94F30004E010E0D2
:101140008CE10E94990364EF71E080E090E00E94DE
:10115000F30001501109A1F70E94BE0381E090E065
:101160000E94B0036FE080E00E94CE0361E871E06E
:1011700088E693E00E94100564EF71E080E090E063
:101180000E94F30005E010E088E10E94990364EFFB
:1011900071E080E090E00E94F30001501109A1F796
:1011A00090E080E00E94B0030E94BE036DE871E011
:1011B00088E693E00E94100568EE73E080E090E01E
:1011C0000E94F300809171038B7F8093710388608C
:1011D0000E94990368EE73E080E090E00E94F300C3
:1011E0000E94BE036CE971E088E693E00E9410055E
:1011F00080917103982F9460909371038C600E948A
:10120000990368EE73E080E090E00E94F3000E9492
:10121000BE0360E081E00E94CE036CEA71E088E6E4
:1012200093E00E94100560E180E00E94CE0380916F
:101230007203982F91609093720385600E949903C6
:1012400069E170E090E080E00E94DD0E8C01009783
:10125000E1F0FC0110826AEC71E00E94A30F7801BA
:101260006801F8E1CF0ED11CCE14DF0471F0F70154
:1012700061917F0188E693E00E94B4046AEF70E018
:1012800080E090E00E94F300EFCF809172038E7FA8
:101290008093720384600E94990360ED77E080E0A0
:1012A00090E00E94F3000E94C60368EE73E080E0C5
:1012B00090E00E94F3000E94BE0380917103982F7A
:1012C00091609093710389600E94990360ED77E0CB
:1012D00080E090E00E94F300F12CE12CF8E0EF16A2
:1012E000F10409F080C1809171038E7F80937103B6
:1012F00088600E9499036E2D80E00E94CE0364EF07
:1013000071E080E090E00E94F3008FEFE81AF80AA5
:1013100090E1E916F10411F768EE73E080E090E0E7
:101320000E94F3000E94C60364EF71E080E090E049
:101330000E94F300809171038E7F80937103886017
:101340000E94990380917103982F9260909371038A
:101350008A600E9499030E94BE0368EE73E080E0F9
:1013600090E00E94F300C12CD12C76014AE0C70125
:10137000B6010E94C2046AEF70E080E090E00E9433
:10138000F300EFEFCE1ADE0AEE0AFE0AFAE0CF16FD
:10139000D104E104F10451F70E94C60364E670E051
:1013A00080E090E00E94F30022E3E22EF12C84E141
:1013B0000E94990364E670E080E090E00E94F300F0
:1013C00021E0E21AF10899F792E3E92EF12C80E18D
:1013D0000E94990364E670E080E090E00E94F300D0
:1013E00081E0E81AF10899F7809171038D7F80936D
:1013F000710388600E9499030E94BE030E94BE038D
:1014000090E080E00E94B003F12CE12C63EE71E0EB
:10141000E0FE02C065EE71E088E693E00E941005F0
:1014200064E670E080E090E00E94F3009FEFE91A2C
:10143000F90AE2E3EE16F10449F70E94BE0381E0E7
:1014400090E00E94B0036FE080E00E94CE03F12C98
:10145000E12C67EE71E0E0FE02C069EE71E088E623
:1014600093E00E94100564E670E080E090E00E9446
:10147000F300FFEFEF1AFF0A22E3E216F10449F747
:101480000E94BE0381E08093750380916D038150BB
:1014900080937603809172038E7F809372038460C1
:1014A0000E9499030E94C60390E080E00E94B0036E
:1014B00067E773E083E090E00E948C046FE773E0DD
:1014C00084E090E00E948C0467E873E085E090E09F
:1014D0000E948C046FE873E086E090E00E948C0428
:1014E00067E973E087E090E00E948C0460E080E0B0
:1014F0000E94CE036BEE71E088E693E00E94100537
:10150000F12CE12C6AE080E00E94CE03FF92EF9282
:1015100086EF91E09F938F937F926F920E94AA0F24
:10152000B30188E693E00E9410050F900F900F9092
:101530000F900F900F9080917503882309F49BC042
:10154000B7010F2C000C880B990B0E94670B4B0105
:101550005C01C0906E03F5E0CF9E6001112420E095
:1015600030E0A9010E94600B87FD4AC020E030E016
:1015700048EC52E4C501B4010E94630D18160CF446
:1015800043C0B601DD0C880B990B0E94670B1B0151
:101590002C0120E030E048EC52E4C501B4010E9487
:1015A000BB0C9B01AC01C201B1010E94C60B0E94A1
:1015B0002D0DCB0165E070E00E94680D4B016C01C0
:1015C00060E0809176030E94CE03B12CA12CA81478
:1015D000B9040CF567E088E693E00E9476042FEFEB
:1015E000A21AB20AF4CF2AE0E216F10409F083CE7F
:1015F00080917103982F916090937103896079CEE7
:10160000812C912C5401BDCF812C912C88ECA82EDB
:1016100082E4B82EB6CF90906E03981882E0C81678
:10162000D10429F1ACF463E0CA94CD28D1F0B12CF7
:10163000A12CC92CD12CAC14BD04ECF462E771E0F0
:1016400088E693E00E9410058FEFA81AB80AF3CF3E
:10165000F3E0CF16D10469F066E024E0C216D104AD
:1016600031F788E693E00E9476049A94E0CF64E034
:10167000F8CF65E0F6CF64E670E080E090E00E948D
:10168000F3009FEFE91AF90AE5E6EE16F10409F016
:1016900039CF109275030E94BE030115110519F090
:1016A000C8010E94540E80E090E0892B09F423CDFC
:1016B0000E949101882309F41ECD0E9400001BCDD9
:1016C0000E94A20B08F481E00895E89409C097FBFA
:1016D0003EF490958095709561957F4F8F4F9F4F09
:1016E0009923A9F0F92F96E9BB279395F69587954D
:1016F00077956795B795F111F8CFFAF4BB0F11F410
:1017000060FF1BC06F5F7F4F8F4F9F4F16C08823B6
:1017100011F096E911C0772321F09EE8872F762FEC
:1017200005C0662371F096E8862F70E060E02AF02D
:101730009A95660F771F881FDAF7880F9695879519
:1017400097F90895990F0008550FAA0BE0E8FEEFEE
:1017500016161706E807F907C0F012161306E40775
:10176000F50798F0621B730B840B950B39F40A266E
:1017700061F0232B242B252B21F408950A2609F44C
:10178000A140A6958FEF811D811D08950E94D90B60
:101790000C944A0C0E943C0C38F00E94430C20F040
:1017A000952311F00C94330C0C94390C11240C94E7
:1017B0007E0C0E945B0C70F3959FC1F3950F50E077
:1017C000551F629FF001729FBB27F00DB11D639FF3
:1017D000AA27F00DB11DAA1F649F6627B00DA11D99
:1017E000661F829F2227B00DA11D621F739FB00D3F
:1017F000A11D621F839FA00D611D221F749F3327AF
:10180000A00D611D231F849F600D211D822F762F47
:101810006A2F11249F5750409AF0F1F088234AF024
:10182000EE0FFF1FBB1F661F771F881F9150504090
:10183000A9F79E3F510580F00C94330C0C947E0C5C
:101840005F3FE4F3983ED4F3869577956795B79517
:10185000F795E7959F5FC1F7FE2B880F911D969531
:10186000879597F9089597F99F6780E870E060E0A1
:1018700008959FEF80EC089500240A941616170629
:1018800018060906089500240A9412161306140671
:1018900005060895092E0394000C11F4882352F0D4
:1018A000BB0F40F4BF2B11F460FF04C06F5F7F4F8C
:1018B0008F4F9F4F089557FD9058440F551F59F073
:1018C0005F3F71F04795880F97FB991F61F09F3F2D
:1018D00079F087950895121613061406551FF2CF56
:1018E0004695F1DF08C0161617061806991FF1CFA6
:1018F00086957105610508940895E894BB276627CD
:101900007727CB0197F908952F923F924F925F92DC
:101910006F927F928F929F92AF92BF92CF92DF92FF
:10192000EF92FF920F931F93CF93DF93CDB7DEB764
:10193000CA1BDB0B0FB6F894DEBF0FBECDBF0994F8
:101940002A88398848885F846E847D848C849B844F
:10195000AA84B984C884DF80EE80FD800C811B815D
:10196000AA81B981CE0FD11D0FB6F894DEBF0FBE8C
:10197000CDBFED0108950E94CF0C0C944A0C0E943B
:10198000430C58F00E943C0C40F029F45F3F29F0D2
:101990000C94330C51110C947E0C0C94390C0E9455
:1019A0005B0C68F39923B1F3552391F3951B550B09
:1019B000BB27AA2762177307840738F09F5F5F4F22
:1019C000220F331F441FAA1FA9F335D00E2E3AF061
:1019D000E0E832D091505040E695001CCAF72BD079
:1019E000FE2F29D0660F771F881FBB1F26173707CA
:1019F0004807AB07B0E809F0BB0B802DBF01FF27FC
:101A000093585F4F3AF09E3F510578F00C94330C99
:101A10000C947E0C5F3FE4F3983ED4F38695779563
:101A20006795B795F7959F5FC9F7880F911D9695B4
:101A3000879597F90895E1E0660F771F881FBB1F10
:101A4000621773078407BA0720F0621B730B840BBD
:101A5000BA0BEE1F88F7E09508950E94340D689444
:101A6000B1110C947E0C08950E94630C88F09F576E
:101A700098F0B92F9927B751B0F0E1F0660F771FB2
:101A8000881F991F1AF0BA95C9F714C0B13091F0A8
:101A90000E947D0CB1E008950C947D0C672F782F87
:101AA0008827B85F39F0B93FCCF38695779567956D
:101AB000B395D9F73EF490958095709561957F4FD9
:101AC0008F4F9F4F08950E94A20B08F48FEF089547
:101AD00097FB072E16F4009407D077FD09D00E94DB
:101AE0009E0D07FC05D03EF4909581959F4F08957B
:101AF000709561957F4F0895A1E21A2EAA1BBB1B1A
:101B0000FD010DC0AA1FBB1FEE1FFF1FA217B307C9
:101B1000E407F50720F0A21BB30BE40BF50B661FDF
:101B2000771F881F991F1A9469F7609570958095A3
:101B300090959B01AC01BD01CF010895AA1BBB1B71
:101B400051E107C0AA1FBB1FA617B70710F0A61BBD
:101B5000B70B881F991F5A95A9F780959095BC01DE
:101B6000CD010895EE0FFF1F0590F491E02D09942B
:101B70000F931F93CF93DF938230910510F482E08F
:101B800090E0E091A103F091A20330E020E0B0E00A
:101B9000A0E0309799F42115310509F44AC0281BBB
:101BA000390B24303105D8F58A819B816115710587
:101BB00089F1FB0193838283FE0111C04081518131
:101BC0000281138148175907E0F04817590799F423
:101BD000109761F012960C93129713961C933296FD
:101BE000CF01DF91CF911F910F9108950093A10331
:101BF0001093A203F4CF2115310551F0421753077A
:101C000038F0A901DB019A01BD01DF01F801C1CF64
:101C1000EF01F9CF9093A2038093A103CDCFFE01F2
:101C2000E20FF31F81939193225031093983288366
:101C3000D7CF20919F033091A003232B41F4209113
:101C40000A0130910B013093A00320939F03209150
:101C50000801309109012115310541F42DB73EB736
:101C600040910C0150910D01241B350BE0919F0315
:101C7000F091A003E217F307A0F42E1B3F0B2817E7
:101C8000390778F0AC014E5F5F4F2417350748F0F5
:101C90004E0F5F1F5093A00340939F038193919336
:101CA0009FCFF0E0E0E09CCFCF93DF930097E9F087
:101CB000FC01329713821282A091A103B091A2037A
:101CC000ED0130E020E01097A1F420813181820FF6
:101CD000931F20919F033091A0032817390709F023
:101CE00061C0F093A003E0939F03DF91CF9108952B
:101CF000EA01CE17DF07E8F54A815B819E014115B5
:101D00005105B1F7E901FB83EA8349915991C40F69
:101D1000D51FEC17FD0761F4808191810296840F35
:101D2000951FE90199838883828193819B838A83AC
:101D3000F0E0E0E012968D919C9113970097B9F531
:101D40002D913C911197CD010296820F931F209106
:101D50009F033091A0032817390739F6309751F5C2
:101D60001092A2031092A103B093A003A0939F032B
:101D7000BCCFD383C28340815181840F951FC81784
:101D8000D90761F44E5F5F4F88819981480F591FD1
:101D9000518340838A819B819383828321153105FE
:101DA00009F0B0CFF093A203E093A1039ECFFD0111
:101DB000DC01C0CF13821282D7CFB0E0A0E0E3EE07
:101DC000FEE00C94860C8C01009751F4CB010E942C
:101DD000B80D8C01C801CDB7DEB7E0E10C94A20CC0
:101DE000FC01E60FF71F9C0122503109E217F307AF
:101DF00008F49DC0D901CD91DC911197C617D70782
:101E000098F0C530D10530F3CE01049786179707B7
:101E100008F3C61BD70B2297C193D1936D937C9384
:101E2000CF010E94540ED6CF5B01AC1ABD0A4C0103
:101E30008C0E9D1EA091A103B091A203512C412CA8
:101E4000F12CE12C109731F580919F039091A00324
:101E50008815990509F05CC04616570608F058C069
:101E60008091080190910901009741F48DB79EB7C8
:101E700040910C0150910D01841B950BE817F90757
:101E800008F055C0F093A003E0939F03F90171831C
:101E90006083A0CF8D919C91119712966C901297B0
:101EA00013967C901397A815B90559F56C0142E07B
:101EB000C40ED11CCA14DB0420F1AC014A195B0921
:101EC000DA011296159780F0628273825183408303
:101ED000D9016D937C93E114F10471F0D70113964D
:101EE000FC93EE93129776CF22968C0F9D1FF901EB
:101EF00091838083F301EFCFF093A203E093A103DA
:101F000069CF4816590608F42C017D01D3019ACFF8
:101F1000CB010E94B80D7C01009749F0AE01B801D9
:101F20000E949A0FC8010E94540E870153CF10E0FF
:101F300000E050CFFB01DC0102C001900D92415046
:101F40005040D8F70895FB01DC0101900D9200206C
:101F5000E1F70895AEE0B0E0E0EBFFE00C94920C06
:101F60000D891E8986E08C831A8309838FEF9FE792
:101F70009E838D83AE01475E5F4F6F89788DCE0162
:101F800001960E94CD0F2F813885020F131FF80193
:101F900010822E96E4E00C94AE0CABE0B0E0E3EDE2
:101FA000FFE00C94840C7C013B018A01FC01178248
:101FB0001682838181FFC8C1CE0101965C01F701C1
:101FC0009381F30193FD859193FF81913F018823D4
:101FD00009F453C1853239F493FD859193FF8191C2
:101FE0003F01853229F4B70190E00E94BD11E7CF8F
:101FF000912C212C312CFFE1F31538F08B3211F1AB
:1020000090F4803209F1833229F137FC3CC020ED95
:10201000280F2A3050F536FE20C08AE0989E200D09
:102020001124922E06C08D3291F0803371F768949E
:1020300030F8F30193FD859193FF81913F01811168
:10204000DACF21C0689431F8689432F8F2CF6894FE
:1020500033F8EFCF689434F8ECCFEAE02E9E200DF1
:102060001124222E689435F8E4CF8E3229F436FC00
:1020700004C1689436F8DDCF8C3619F4689437F8CB
:10208000D8CF8836B1F2982F9F7D95549330E0F0E9
:102090008336A1F18337C1F1833509F063C028018C
:1020A000F2E04F0E511CF801C080D180692D70E024
:1020B00036FC02C06FEF7FEFC6010E94A7114C01F2
:1020C000689437F882010AC00C5F1F4FFFE3F98361
:1020D00088248394912C6501E89437F833FE2DC051
:1020E000522C8114910471F5552009F468CFB70181
:1020F00080E290E00E94BD115A94F6CFF8018081F1
:1021000089830E5F1F4FE4CF2801F2E04F0E511C70
:10211000F801C080D180692D70E036FC02C06FEFFD
:102120007FEFC6010E94B2114C018201D5CFB701E9
:1021300080E290E00E94BD112A942814190409F04D
:10214000B0F7CECFF60137FC859137FE81916F0154
:10215000B70190E00E94BD1151105A94F1E08F1A1E
:102160009108BFCF843619F0893609F077C0F8019D
:1021700037FE6BC060817181828193810C5F1F4F3C
:10218000F32DFF763F2E97FF09C0909580957095AF
:1021900061957F4F8F4F9F4F689437F82AE030E06A
:1021A000A5010E94ED11C82ECA188C2C432C36FEB6
:1021B0000CC0E89440F8C91440F434FE05C032FC69
:1021C00003C0F32DFE7E4F2E892C44FE95C0FE01E8
:1021D000EC0DF11D8081803309F087C0242D297E0C
:1021E000422E842D8870582E43FC95C040FE8FC02F
:1021F0009C2C821418F42C0C922C981844FE91C03C
:10220000B70180E390E00E94BD1142FE09C088E75B
:1022100090E041FE02C088E590E0B7010E94BD1148
:10222000C91408F48AC0CA94D12C9FEFC91AD90ADC
:10223000CA0CDB1CF60182916F01B70190E00E948D
:10224000BD11AC14BD04B1F74FCF60817181072E71
:10225000000C880B990B0E5F1F4F92CFD32CE89484
:10226000D4F82AE030E0853739F1232D297FD22EAA
:102270008F3601F148F48835A9F0F70186819781FE
:102280002B96E2E10C94A00C803749F08837A9F72F
:10229000D4FE02C06894D2F820E130E00DC068940A
:1022A000D4F8F6CF34FE03C0822F8660D82E20E10A
:1022B00032E002C028E030E0F801D7FE0FC06081B4
:1022C0007181828193810C5F1F4FA5010E94ED11E6
:1022D000C82ECA183D2CE89437F867CF6081718109
:1022E00090E080E00E5F1F4FF0CF42FC02C083946D
:1022F00078CF8394839475CF842D867809F471CF39
:10230000F6CFB70180E290E00E94BD118394821461
:10231000C0F3512C73CF522C5818821408F46ECF8E
:10232000F8CF842D867809F47BCF8BE241FE80E2E2
:1023300047FC8DE2B70190E071CFB70180E390E0F8
:102340000E94BD119A946CCF8FEF9FEF99CFFC0143
:102350000590615070400110D8F7809590958E0FD0
:102360009F1F0895FC016150704001900110D8F743
:10237000809590958E0F9F1F08950F931F93CF9375
:10238000DF93182F092FEB018B8181FD09C01FEF0F
:102390000FEF812F902FDF91CF911F910F91089513
:1023A00082FF14C02E813F818C819D8128173907BF
:1023B0003CF4E881F981CF010196998388831083E9
:1023C0008E819F8101969F838E83E3CFE885F98577
:1023D000812F0995892BA1F3DACFFA01AA2728309A
:1023E00051F1203181F1E8946F936E7F6E5F7F4FE2
:1023F0008F4F9F4FAF4FB1E03ED0B4E03CD0670F5E
:10240000781F891F9A1FA11D680F791F8A1F911DB0
:10241000A11D6A0F711D811D911DA11D20D009F400
:1024200068943F912AE0269F11243019305D319342
:10243000DEF6CF010895462F4770405D4193B3E02B
:102440000FD0C9F7F6CF462F4F70405D4A3318F0D2
:10245000495D31FD4052419302D0A9F7EACFB4E083
:10246000A6959795879577956795BA95C9F700973B
:102470006105710508959B01AC010A2E06945795DC
:10248000479537952795BA95C9F7620F731F841F33
:10249000951FA01D0895F894FFCF00000A1F1F0E7E
:1024A00004000000A3038000101010101010101082
:1024B00018181818181818181C1C1C1C1C1C1C1C7C
:1024C0001E1E1E1E1E1E1E1E1F1F1F1F1F1F1F1F24
:1024D00000000000C70127015401140285016301B7
:1024E00077010000000047041A04BF04F00313043E
:1024F0000004F10300000000B4042701BF04BE047F
:1025000048656C6C6F20776F726C64212000736378
:10251000726F6C6C207269676874007466656C20F9
:102520006C6C6F726373007475726E696E67206F86
:1025300066662E2E2E007475726E6564206F6E2096
:10254000616761696E005468697320697320616C0A
:10255000736F20612076657279206C6F6E67206CD6
:10256000696E65005468697320697320612076651F
:102570007279206C6F6E67206C696E650041004255
:10258000005800590050726F67726573733A2000EB
:0625900025642025250052
:107E0000112484B714BE81FFF0D085E080938100F7
:107E100082E08093C00088E18093C10086E0809377
:107E2000C20080E18093C4008EE0C9D0259A86E02C
:107E300020E33CEF91E0309385002093840096BBD3
:107E4000B09BFECF1D9AA8958150A9F7CC24DD24C4
:107E500088248394B5E0AB2EA1E19A2EF3E0BF2EE7
:107E6000A2D0813461F49FD0082FAFD0023811F036
:107E7000013811F484E001C083E08DD089C08234E0
:107E800011F484E103C0853419F485E0A6D080C0E4
:107E9000853579F488D0E82EFF2485D0082F10E0AE
:107EA000102F00270E291F29000F111F8ED06801E7
:107EB0006FC0863521F484E090D080E0DECF843638
:107EC00009F040C070D06FD0082F6DD080E0C81688
:107ED00080E7D80618F4F601B7BEE895C0E0D1E017
:107EE00062D089930C17E1F7F0E0CF16F0E7DF06D8
:107EF00018F0F601B7BEE89568D007B600FCFDCFD4
:107F0000A601A0E0B1E02C9130E011968C91119780
:107F100090E0982F8827822B932B1296FA010C0160
:107F200087BEE89511244E5F5F4FF1E0A038BF0790
:107F300051F7F601A7BEE89507B600FCFDCF97BE46
:107F4000E89526C08437B1F42ED02DD0F82E2BD052
:107F50003CD0F601EF2C8F010F5F1F4F84911BD097
:107F6000EA94F801C1F70894C11CD11CFA94CF0C13
:107F7000D11C0EC0853739F428D08EE10CD085E9AC
:107F80000AD08FE07ACF813511F488E018D01DD067
:107F900080E101D065CF982F8091C00085FFFCCF94
:107FA0009093C60008958091C00087FFFCCF809118
:107FB000C00084FD01C0A8958091C6000895E0E648
:107FC000F0E098E1908380830895EDDF803219F02E
:107FD00088E0F5DFFFCF84E1DECF1F93182FE3DFCA
:107FE0001150E9F7F2DF1F91089580E0E8DFEE27F6
:047FF000FF270994CA
:027FFE00040479
:00000001FF
